{
  "contractName": "BSCBridge",
  "abi": [
    {
      "inputs": [],
      "stateMutability": "nonpayable",
      "type": "constructor"
    },
    {
      "anonymous": false,
      "inputs": [
        {
          "indexed": true,
          "internalType": "address",
          "name": "slpToken",
          "type": "address"
        },
        {
          "indexed": true,
          "internalType": "address",
          "name": "bepToken",
          "type": "address"
        }
      ],
      "name": "Bridge",
      "type": "event"
    },
    {
      "anonymous": false,
      "inputs": [
        {
          "indexed": true,
          "internalType": "address",
          "name": "previousOwner",
          "type": "address"
        },
        {
          "indexed": true,
          "internalType": "address",
          "name": "newOwner",
          "type": "address"
        }
      ],
      "name": "OwnershipTransferred",
      "type": "event"
    },
    {
      "anonymous": false,
      "inputs": [
        {
          "indexed": true,
          "internalType": "address",
          "name": "slpToken",
          "type": "address"
        },
        {
          "indexed": true,
          "internalType": "address",
          "name": "to",
          "type": "address"
        },
        {
          "indexed": false,
          "internalType": "uint256",
          "name": "amount",
          "type": "uint256"
        },
        {
          "indexed": false,
          "internalType": "string",
          "name": "_metadata",
          "type": "string"
        }
      ],
      "name": "Payback",
      "type": "event"
    },
    {
      "anonymous": false,
      "inputs": [
        {
          "indexed": true,
          "internalType": "address",
          "name": "slpToken",
          "type": "address"
        },
        {
          "indexed": true,
          "internalType": "address",
          "name": "to",
          "type": "address"
        },
        {
          "indexed": false,
          "internalType": "uint256",
          "name": "amount",
          "type": "uint256"
        },
        {
          "indexed": false,
          "internalType": "string",
          "name": "transitId",
          "type": "string"
        }
      ],
      "name": "Transit",
      "type": "event"
    },
    {
      "inputs": [],
      "name": "owner",
      "outputs": [
        {
          "internalType": "address",
          "name": "",
          "type": "address"
        }
      ],
      "stateMutability": "view",
      "type": "function"
    },
    {
      "inputs": [],
      "name": "renounceOwnership",
      "outputs": [],
      "stateMutability": "nonpayable",
      "type": "function"
    },
    {
      "inputs": [
        {
          "internalType": "address",
          "name": "newOwner",
          "type": "address"
        }
      ],
      "name": "transferOwnership",
      "outputs": [],
      "stateMutability": "nonpayable",
      "type": "function"
    },
    {
      "inputs": [
        {
          "internalType": "address",
          "name": "_slpToken",
          "type": "address"
        },
        {
          "internalType": "string",
          "name": "_name",
          "type": "string"
        },
        {
          "internalType": "string",
          "name": "_symbol",
          "type": "string"
        }
      ],
      "name": "deployBridgeBep20Token",
      "outputs": [],
      "stateMutability": "nonpayable",
      "type": "function"
    },
    {
      "inputs": [
        {
          "internalType": "address",
          "name": "_slpToken",
          "type": "address"
        },
        {
          "internalType": "uint256",
          "name": "_amount",
          "type": "uint256"
        },
        {
          "internalType": "string",
          "name": "_transitId",
          "type": "string"
        },
        {
          "internalType": "bytes32",
          "name": "_signature",
          "type": "bytes32"
        }
      ],
      "name": "transit",
      "outputs": [],
      "stateMutability": "nonpayable",
      "type": "function"
    },
    {
      "inputs": [
        {
          "internalType": "address",
          "name": "_bepToken",
          "type": "address"
        },
        {
          "internalType": "uint256",
          "name": "_amount",
          "type": "uint256"
        },
        {
          "internalType": "string",
          "name": "_metadata",
          "type": "string"
        }
      ],
      "name": "payback",
      "outputs": [],
      "stateMutability": "nonpayable",
      "type": "function"
    },
    {
      "inputs": [
        {
          "internalType": "address",
          "name": "_bepToken",
          "type": "address"
        },
        {
          "internalType": "address",
          "name": "_to",
          "type": "address"
        }
      ],
      "name": "transferTokenOwnership",
      "outputs": [],
      "stateMutability": "nonpayable",
      "type": "function"
    },
    {
      "inputs": [
        {
          "internalType": "address",
          "name": "_bepToken",
          "type": "address"
        },
        {
          "internalType": "address",
          "name": "_slpToken",
          "type": "address"
        }
      ],
      "name": "addTokenToBridge",
      "outputs": [],
      "stateMutability": "nonpayable",
      "type": "function"
    },
    {
      "inputs": [
        {
          "internalType": "address",
          "name": "_slpToken",
          "type": "address"
        },
        {
          "internalType": "uint256",
          "name": "_amount",
          "type": "uint256"
        },
        {
          "internalType": "address",
          "name": "_sender",
          "type": "address"
        },
        {
          "internalType": "string",
          "name": "_transitId",
          "type": "string"
        },
        {
          "internalType": "bytes32",
          "name": "_secret",
          "type": "bytes32"
        }
      ],
      "name": "_verifyMessage",
      "outputs": [
        {
          "internalType": "bytes32",
          "name": "",
          "type": "bytes32"
        }
      ],
      "stateMutability": "view",
      "type": "function"
    }
  ],
  "bytecode": "0x6080604052436040516020016200001791906200013e565b604051602081830303815290604052805190602001206004553480156200003d57600080fd5b50600062000050620000f460201b60201c565b9050806000806101000a81548173ffffffffffffffffffffffffffffffffffffffff021916908373ffffffffffffffffffffffffffffffffffffffff1602179055508073ffffffffffffffffffffffffffffffffffffffff16600073ffffffffffffffffffffffffffffffffffffffff167f8be0079c531659141344cd1fd0a4f28419497f9722a3daafe3b4186f6b6457e060405160405180910390a350620001fc565b600033905090565b60006200010b60428362000168565b9150620001188262000187565b604282019050919050565b62000138620001328262000173565b6200017d565b82525050565b60006200014c828462000123565b6020820191506200015d82620000fc565b915081905092915050565b600081905092915050565b6000819050919050565b6000819050919050565b7f307833643630326438303630306133643339383166333336336433643337336460008201527f336433643336336437333030303030303030303030303030303030303030303060208201527f3030000000000000000000000000000000000000000000000000000000000000604082015250565b614192806200020c6000396000f3fe60806040523480156200001157600080fd5b5060043610620000a05760003560e01c80638e180edc116200006f5780638e180edc14620001135780639232640b14620001335780639578ea6f1462000153578063b5a877211462000189578063f2fde38b14620001a957620000a0565b806309647f2d14620000a5578063383fe46714620000c5578063715018a614620000e55780638da5cb5b14620000f1575b600080fd5b620000c36004803603810190620000bd9190620013ca565b620001c9565b005b620000e36004803603810190620000dd919062001389565b620004cc565b005b620000ef620007f7565b005b620000fb62000938565b6040516200010a91906200192c565b60405180910390f35b6200013160048036038101906200012b91906200155c565b62000961565b005b6200015160048036038101906200014b9190620014ed565b62000cbc565b005b6200017160048036038101906200016b919062001452565b62000eb9565b60405162000180919062001976565b60405180910390f35b620001a76004803603810190620001a1919062001389565b62000f00565b005b620001c76004803603810190620001c191906200135d565b620010dd565b005b620001d362001290565b73ffffffffffffffffffffffffffffffffffffffff16620001f362000938565b73ffffffffffffffffffffffffffffffffffffffff16146200024c576040517f08c379a0000000000000000000000000000000000000000000000000000000008152600401620002439062001a9a565b60405180910390fd5b600073ffffffffffffffffffffffffffffffffffffffff168373ffffffffffffffffffffffffffffffffffffffff161415620002bf576040517f08c379a0000000000000000000000000000000000000000000000000000000008152600401620002b69062001a78565b60405180910390fd5b600060405180602001620002d39062001298565b6020820181038252601f19601f820116604052508383604051602001620002fc92919062001993565b6040516020818303038152906040526040516020016200031e92919062001860565b60405160208183030381529060405290506000848484604051602001620003489392919062001825565b6040516020818303038152906040528051906020012090506000818351602085016000f5905080600260008873ffffffffffffffffffffffffffffffffffffffff1673ffffffffffffffffffffffffffffffffffffffff16815260200190815260200160002060006101000a81548173ffffffffffffffffffffffffffffffffffffffff021916908373ffffffffffffffffffffffffffffffffffffffff16021790555085600360008373ffffffffffffffffffffffffffffffffffffffff1673ffffffffffffffffffffffffffffffffffffffff16815260200190815260200160002060006101000a81548173ffffffffffffffffffffffffffffffffffffffff021916908373ffffffffffffffffffffffffffffffffffffffff1602179055508073ffffffffffffffffffffffffffffffffffffffff168673ffffffffffffffffffffffffffffffffffffffff167faba0864e647b740ddf2886a9e51e51a1a68617dc9cf7dffdf4144815ea5d88b560405160405180910390a3505050505050565b620004d662001290565b73ffffffffffffffffffffffffffffffffffffffff16620004f662000938565b73ffffffffffffffffffffffffffffffffffffffff16146200054f576040517f08c379a0000000000000000000000000000000000000000000000000000000008152600401620005469062001a9a565b60405180910390fd5b6000600360008473ffffffffffffffffffffffffffffffffffffffff1673ffffffffffffffffffffffffffffffffffffffff16815260200190815260200160002060009054906101000a900473ffffffffffffffffffffffffffffffffffffffff169050600073ffffffffffffffffffffffffffffffffffffffff16600360008573ffffffffffffffffffffffffffffffffffffffff1673ffffffffffffffffffffffffffffffffffffffff16815260200190815260200160002060009054906101000a900473ffffffffffffffffffffffffffffffffffffffff1673ffffffffffffffffffffffffffffffffffffffff16141562000685576040517f08c379a00000000000000000000000000000000000000000000000000000000081526004016200067c9062001a78565b60405180910390fd5b8273ffffffffffffffffffffffffffffffffffffffff1663f2fde38b836040518263ffffffff1660e01b8152600401620006c091906200192c565b600060405180830381600087803b158015620006db57600080fd5b505af1158015620006f0573d6000803e3d6000fd5b505050506000600260008373ffffffffffffffffffffffffffffffffffffffff1673ffffffffffffffffffffffffffffffffffffffff16815260200190815260200160002060006101000a81548173ffffffffffffffffffffffffffffffffffffffff021916908373ffffffffffffffffffffffffffffffffffffffff1602179055506000600360008573ffffffffffffffffffffffffffffffffffffffff1673ffffffffffffffffffffffffffffffffffffffff16815260200190815260200160002060006101000a81548173ffffffffffffffffffffffffffffffffffffffff021916908373ffffffffffffffffffffffffffffffffffffffff160217905550505050565b6200080162001290565b73ffffffffffffffffffffffffffffffffffffffff166200082162000938565b73ffffffffffffffffffffffffffffffffffffffff16146200087a576040517f08c379a0000000000000000000000000000000000000000000000000000000008152600401620008719062001a9a565b60405180910390fd5b600073ffffffffffffffffffffffffffffffffffffffff1660008054906101000a900473ffffffffffffffffffffffffffffffffffffffff1673ffffffffffffffffffffffffffffffffffffffff167f8be0079c531659141344cd1fd0a4f28419497f9722a3daafe3b4186f6b6457e060405160405180910390a360008060006101000a81548173ffffffffffffffffffffffffffffffffffffffff021916908373ffffffffffffffffffffffffffffffffffffffff160217905550565b60008060009054906101000a900473ffffffffffffffffffffffffffffffffffffffff16905090565b600073ffffffffffffffffffffffffffffffffffffffff16600260008673ffffffffffffffffffffffffffffffffffffffff1673ffffffffffffffffffffffffffffffffffffffff16815260200190815260200160002060009054906101000a900473ffffffffffffffffffffffffffffffffffffffff1673ffffffffffffffffffffffffffffffffffffffff16141562000a33576040517f08c379a000000000000000000000000000000000000000000000000000000000815260040162000a2a9062001a56565b60405180910390fd5b60018260405162000a45919062001888565b908152602001604051809103902060009054906101000a900460ff161562000aa4576040517f08c379a000000000000000000000000000000000000000000000000000000000815260040162000a9b9062001a12565b60405180910390fd5b6000831162000aea576040517f08c379a000000000000000000000000000000000000000000000000000000000815260040162000ae19062001a34565b60405180910390fd5b600062000afd8585338660045462000eb9565b905081811462000b44576040517f08c379a000000000000000000000000000000000000000000000000000000000815260040162000b3b90620019ce565b60405180910390fd5b600260008673ffffffffffffffffffffffffffffffffffffffff1673ffffffffffffffffffffffffffffffffffffffff16815260200190815260200160002060009054906101000a900473ffffffffffffffffffffffffffffffffffffffff1673ffffffffffffffffffffffffffffffffffffffff166340c10f1933866040518363ffffffff1660e01b815260040162000be092919062001949565b600060405180830381600087803b15801562000bfb57600080fd5b505af115801562000c10573d6000803e3d6000fd5b505050506001808460405162000c27919062001888565b908152602001604051809103902060006101000a81548160ff0219169083151502179055503373ffffffffffffffffffffffffffffffffffffffff168573ffffffffffffffffffffffffffffffffffffffff167f958c35a7d74b671d8f6c137554a398d566d09f19eac78be2e5837838a8f1ec33868660405162000cad92919062001abc565b60405180910390a35050505050565b6000600360008573ffffffffffffffffffffffffffffffffffffffff1673ffffffffffffffffffffffffffffffffffffffff16815260200190815260200160002060009054906101000a900473ffffffffffffffffffffffffffffffffffffffff169050600073ffffffffffffffffffffffffffffffffffffffff168173ffffffffffffffffffffffffffffffffffffffff16141562000d93576040517f08c379a000000000000000000000000000000000000000000000000000000000815260040162000d8a9062001a78565b60405180910390fd5b6000831162000dd9576040517f08c379a000000000000000000000000000000000000000000000000000000000815260040162000dd09062001a34565b60405180910390fd5b8373ffffffffffffffffffffffffffffffffffffffff16639dc29fac33856040518363ffffffff1660e01b815260040162000e1692919062001949565b600060405180830381600087803b15801562000e3157600080fd5b505af115801562000e46573d6000803e3d6000fd5b505050503373ffffffffffffffffffffffffffffffffffffffff168173ffffffffffffffffffffffffffffffffffffffff167f297d95a3b4690c5d1087323e7287259fee9e17dbaa4c0b49c41dd4af236f74a4858560405162000eab92919062001abc565b60405180910390a350505050565b6000804690508030888888888860405160200162000ede9796959493929190620018a1565b6040516020818303038152906040528051906020012091505095945050505050565b62000f0a62001290565b73ffffffffffffffffffffffffffffffffffffffff1662000f2a62000938565b73ffffffffffffffffffffffffffffffffffffffff161462000f83576040517f08c379a000000000000000000000000000000000000000000000000000000000815260040162000f7a9062001a9a565b60405180910390fd5b81600260008373ffffffffffffffffffffffffffffffffffffffff1673ffffffffffffffffffffffffffffffffffffffff16815260200190815260200160002060006101000a81548173ffffffffffffffffffffffffffffffffffffffff021916908373ffffffffffffffffffffffffffffffffffffffff16021790555080600360008473ffffffffffffffffffffffffffffffffffffffff1673ffffffffffffffffffffffffffffffffffffffff16815260200190815260200160002060006101000a81548173ffffffffffffffffffffffffffffffffffffffff021916908373ffffffffffffffffffffffffffffffffffffffff1602179055508173ffffffffffffffffffffffffffffffffffffffff168173ffffffffffffffffffffffffffffffffffffffff167faba0864e647b740ddf2886a9e51e51a1a68617dc9cf7dffdf4144815ea5d88b560405160405180910390a35050565b620010e762001290565b73ffffffffffffffffffffffffffffffffffffffff166200110762000938565b73ffffffffffffffffffffffffffffffffffffffff161462001160576040517f08c379a0000000000000000000000000000000000000000000000000000000008152600401620011579062001a9a565b60405180910390fd5b600073ffffffffffffffffffffffffffffffffffffffff168173ffffffffffffffffffffffffffffffffffffffff161415620011d3576040517f08c379a0000000000000000000000000000000000000000000000000000000008152600401620011ca90620019f0565b60405180910390fd5b8073ffffffffffffffffffffffffffffffffffffffff1660008054906101000a900473ffffffffffffffffffffffffffffffffffffffff1673ffffffffffffffffffffffffffffffffffffffff167f8be0079c531659141344cd1fd0a4f28419497f9722a3daafe3b4186f6b6457e060405160405180910390a3806000806101000a81548173ffffffffffffffffffffffffffffffffffffffff021916908373ffffffffffffffffffffffffffffffffffffffff16021790555050565b600033905090565b6122f18062001e6c83390190565b6000620012bd620012b78462001b19565b62001af0565b905082815260208101848484011115620012d657600080fd5b620012e384828562001bd4565b509392505050565b600081359050620012fc8162001e1d565b92915050565b600081359050620013138162001e37565b92915050565b600082601f8301126200132b57600080fd5b81356200133d848260208601620012a6565b91505092915050565b600081359050620013578162001e51565b92915050565b6000602082840312156200137057600080fd5b60006200138084828501620012eb565b91505092915050565b600080604083850312156200139d57600080fd5b6000620013ad85828601620012eb565b9250506020620013c085828601620012eb565b9150509250929050565b600080600060608486031215620013e057600080fd5b6000620013f086828701620012eb565b935050602084013567ffffffffffffffff8111156200140e57600080fd5b6200141c8682870162001319565b925050604084013567ffffffffffffffff8111156200143a57600080fd5b620014488682870162001319565b9150509250925092565b600080600080600060a086880312156200146b57600080fd5b60006200147b88828901620012eb565b95505060206200148e8882890162001346565b9450506040620014a188828901620012eb565b935050606086013567ffffffffffffffff811115620014bf57600080fd5b620014cd8882890162001319565b9250506080620014e08882890162001302565b9150509295509295909350565b6000806000606084860312156200150357600080fd5b60006200151386828701620012eb565b9350506020620015268682870162001346565b925050604084013567ffffffffffffffff8111156200154457600080fd5b620015528682870162001319565b9150509250925092565b600080600080608085870312156200157357600080fd5b60006200158387828801620012eb565b9450506020620015968782880162001346565b935050604085013567ffffffffffffffff811115620015b457600080fd5b620015c28782880162001319565b9250506060620015d58782880162001302565b91505092959194509250565b620015ec8162001b8c565b82525050565b62001607620016018262001b8c565b62001c4f565b82525050565b620016188162001ba0565b82525050565b620016336200162d8262001ba0565b62001c63565b82525050565b6000620016468262001b4f565b62001652818562001b65565b93506200166481856020860162001be3565b80840191505092915050565b60006200167d8262001b5a565b62001689818562001b70565b93506200169b81856020860162001be3565b620016a68162001cba565b840191505092915050565b6000620016be8262001b5a565b620016ca818562001b81565b9350620016dc81856020860162001be3565b80840191505092915050565b6000620016f760118362001b70565b9150620017048262001cd8565b602082019050919050565b60006200171e60268362001b70565b91506200172b8262001d01565b604082019050919050565b600062001745600f8362001b70565b9150620017528262001d50565b602082019050919050565b60006200176c601d8362001b70565b9150620017798262001d79565b602082019050919050565b600062001793601b8362001b70565b9150620017a08262001da2565b602082019050919050565b6000620017ba600d8362001b70565b9150620017c78262001dcb565b602082019050919050565b6000620017e160208362001b70565b9150620017ee8262001df4565b602082019050919050565b620018048162001bca565b82525050565b6200181f620018198262001bca565b62001c81565b82525050565b6000620018338286620015f2565b601482019150620018458285620016b1565b9150620018538284620016b1565b9150819050949350505050565b60006200186e828562001639565b91506200187c828462001639565b91508190509392505050565b6000620018968284620016b1565b915081905092915050565b6000620018af828a6200180a565b602082019150620018c18289620015f2565b601482019150620018d38288620015f2565b601482019150620018e582876200180a565b602082019150620018f78286620015f2565b601482019150620019098285620016b1565b91506200191782846200161e565b60208201915081905098975050505050505050565b6000602082019050620019436000830184620015e1565b92915050565b6000604082019050620019606000830185620015e1565b6200196f6020830184620017f9565b9392505050565b60006020820190506200198d60008301846200160d565b92915050565b60006040820190508181036000830152620019af818562001670565b90508181036020830152620019c5818462001670565b90509392505050565b60006020820190508181036000830152620019e981620016e8565b9050919050565b6000602082019050818103600083015262001a0b816200170f565b9050919050565b6000602082019050818103600083015262001a2d8162001736565b9050919050565b6000602082019050818103600083015262001a4f816200175d565b9050919050565b6000602082019050818103600083015262001a718162001784565b9050919050565b6000602082019050818103600083015262001a9381620017ab565b9050919050565b6000602082019050818103600083015262001ab581620017d2565b9050919050565b600060408201905062001ad36000830185620017f9565b818103602083015262001ae7818462001670565b90509392505050565b600062001afc62001b0f565b905062001b0a828262001c19565b919050565b6000604051905090565b600067ffffffffffffffff82111562001b375762001b3662001c8b565b5b62001b428262001cba565b9050602081019050919050565b600081519050919050565b600081519050919050565b600081905092915050565b600082825260208201905092915050565b600081905092915050565b600062001b998262001baa565b9050919050565b6000819050919050565b600073ffffffffffffffffffffffffffffffffffffffff82169050919050565b6000819050919050565b82818337600083830152505050565b60005b8381101562001c0357808201518184015260208101905062001be6565b8381111562001c13576000848401525b50505050565b62001c248262001cba565b810181811067ffffffffffffffff8211171562001c465762001c4562001c8b565b5b80604052505050565b600062001c5c8262001c6d565b9050919050565b6000819050919050565b600062001c7a8262001ccb565b9050919050565b6000819050919050565b7f4e487b7100000000000000000000000000000000000000000000000000000000600052604160045260246000fd5b6000601f19601f8301169050919050565b60008160601b9050919050565b7f696e76616c6964207369676e6174757265000000000000000000000000000000600082015250565b7f4f776e61626c653a206e6577206f776e657220697320746865207a65726f206160008201527f6464726573730000000000000000000000000000000000000000000000000000602082015250565b7f616c7265616479207472616e7369740000000000000000000000000000000000600082015250565b7f616d6f756e74206d7573742062652067726561746572207468616e2030000000600082015250565b7f746f6b656e206e6f7420737570706f727420746f206272696467650000000000600082015250565b7f696e76616c696420746f6b656e00000000000000000000000000000000000000600082015250565b7f4f776e61626c653a2063616c6c6572206973206e6f7420746865206f776e6572600082015250565b62001e288162001b8c565b811462001e3457600080fd5b50565b62001e428162001ba0565b811462001e4e57600080fd5b50565b62001e5c8162001bca565b811462001e6857600080fd5b5056fe60806040523480156200001157600080fd5b50604051620022f1380380620022f1833981810160405281019062000037919062000250565b81818160039080519060200190620000519291906200012e565b5080600490805190602001906200006a9291906200012e565b50505060006200007f6200012660201b60201c565b905080600560006101000a81548173ffffffffffffffffffffffffffffffffffffffff021916908373ffffffffffffffffffffffffffffffffffffffff1602179055508073ffffffffffffffffffffffffffffffffffffffff16600073ffffffffffffffffffffffffffffffffffffffff167f8be0079c531659141344cd1fd0a4f28419497f9722a3daafe3b4186f6b6457e060405160405180910390a350505062000433565b600033905090565b8280546200013c9062000358565b90600052602060002090601f016020900481019282620001605760008555620001ac565b82601f106200017b57805160ff1916838001178555620001ac565b82800160010185558215620001ac579182015b82811115620001ab5782518255916020019190600101906200018e565b5b509050620001bb9190620001bf565b5090565b5b80821115620001da576000816000905550600101620001c0565b5090565b6000620001f5620001ef84620002ec565b620002c3565b9050828152602081018484840111156200020e57600080fd5b6200021b84828562000322565b509392505050565b600082601f8301126200023557600080fd5b815162000247848260208601620001de565b91505092915050565b600080604083850312156200026457600080fd5b600083015167ffffffffffffffff8111156200027f57600080fd5b6200028d8582860162000223565b925050602083015167ffffffffffffffff811115620002ab57600080fd5b620002b98582860162000223565b9150509250929050565b6000620002cf620002e2565b9050620002dd82826200038e565b919050565b6000604051905090565b600067ffffffffffffffff8211156200030a5762000309620003f3565b5b620003158262000422565b9050602081019050919050565b60005b838110156200034257808201518184015260208101905062000325565b8381111562000352576000848401525b50505050565b600060028204905060018216806200037157607f821691505b60208210811415620003885762000387620003c4565b5b50919050565b620003998262000422565b810181811067ffffffffffffffff82111715620003bb57620003ba620003f3565b5b80604052505050565b7f4e487b7100000000000000000000000000000000000000000000000000000000600052602260045260246000fd5b7f4e487b7100000000000000000000000000000000000000000000000000000000600052604160045260246000fd5b6000601f19601f8301169050919050565b611eae80620004436000396000f3fe608060405234801561001057600080fd5b50600436106101005760003560e01c8063715018a611610097578063a457c2d711610066578063a457c2d71461029d578063a9059cbb146102cd578063dd62ed3e146102fd578063f2fde38b1461032d57610100565b8063715018a61461023b5780638da5cb5b1461024557806395d89b41146102635780639dc29fac1461028157610100565b8063313ce567116100d3578063313ce567146101a157806339509351146101bf57806340c10f19146101ef57806370a082311461020b57610100565b806306fdde0314610105578063095ea7b31461012357806318160ddd1461015357806323b872dd14610171575b600080fd5b61010d610349565b60405161011a919061173b565b60405180910390f35b61013d600480360381019061013891906114b0565b6103db565b60405161014a9190611720565b60405180910390f35b61015b6103f9565b60405161016891906118dd565b60405180910390f35b61018b60048036038101906101869190611461565b610403565b6040516101989190611720565b60405180910390f35b6101a9610504565b6040516101b691906118f8565b60405180910390f35b6101d960048036038101906101d491906114b0565b61050d565b6040516101e69190611720565b60405180910390f35b610209600480360381019061020491906114b0565b6105b9565b005b610225600480360381019061022091906113fc565b610643565b60405161023291906118dd565b60405180910390f35b61024361068b565b005b61024d6107c8565b60405161025a9190611705565b60405180910390f35b61026b6107f2565b604051610278919061173b565b60405180910390f35b61029b600480360381019061029691906114b0565b610884565b005b6102b760048036038101906102b291906114b0565b61090e565b6040516102c49190611720565b60405180910390f35b6102e760048036038101906102e291906114b0565b610a02565b6040516102f49190611720565b60405180910390f35b61031760048036038101906103129190611425565b610a20565b60405161032491906118dd565b60405180910390f35b610347600480360381019061034291906113fc565b610aa7565b005b60606003805461035890611a41565b80601f016020809104026020016040519081016040528092919081815260200182805461038490611a41565b80156103d15780601f106103a6576101008083540402835291602001916103d1565b820191906000526020600020905b8154815290600101906020018083116103b457829003601f168201915b5050505050905090565b60006103ef6103e8610c53565b8484610c5b565b6001905092915050565b6000600254905090565b6000610410848484610e26565b6000600160008673ffffffffffffffffffffffffffffffffffffffff1673ffffffffffffffffffffffffffffffffffffffff168152602001908152602001600020600061045b610c53565b73ffffffffffffffffffffffffffffffffffffffff1673ffffffffffffffffffffffffffffffffffffffff168152602001908152602001600020549050828110156104db576040517f08c379a00000000000000000000000000000000000000000000000000000000081526004016104d2906117fd565b60405180910390fd5b6104f8856104e7610c53565b85846104f39190611985565b610c5b565b60019150509392505050565b60006012905090565b60006105af61051a610c53565b848460016000610528610c53565b73ffffffffffffffffffffffffffffffffffffffff1673ffffffffffffffffffffffffffffffffffffffff16815260200190815260200160002060008873ffffffffffffffffffffffffffffffffffffffff1673ffffffffffffffffffffffffffffffffffffffff168152602001908152602001600020546105aa919061192f565b610c5b565b6001905092915050565b6105c1610c53565b73ffffffffffffffffffffffffffffffffffffffff166105df6107c8565b73ffffffffffffffffffffffffffffffffffffffff1614610635576040517f08c379a000000000000000000000000000000000000000000000000000000000815260040161062c9061181d565b60405180910390fd5b61063f82826110a5565b5050565b60008060008373ffffffffffffffffffffffffffffffffffffffff1673ffffffffffffffffffffffffffffffffffffffff168152602001908152602001600020549050919050565b610693610c53565b73ffffffffffffffffffffffffffffffffffffffff166106b16107c8565b73ffffffffffffffffffffffffffffffffffffffff1614610707576040517f08c379a00000000000000000000000000000000000000000000000000000000081526004016106fe9061181d565b60405180910390fd5b600073ffffffffffffffffffffffffffffffffffffffff16600560009054906101000a900473ffffffffffffffffffffffffffffffffffffffff1673ffffffffffffffffffffffffffffffffffffffff167f8be0079c531659141344cd1fd0a4f28419497f9722a3daafe3b4186f6b6457e060405160405180910390a36000600560006101000a81548173ffffffffffffffffffffffffffffffffffffffff021916908373ffffffffffffffffffffffffffffffffffffffff160217905550565b6000600560009054906101000a900473ffffffffffffffffffffffffffffffffffffffff16905090565b60606004805461080190611a41565b80601f016020809104026020016040519081016040528092919081815260200182805461082d90611a41565b801561087a5780601f1061084f5761010080835404028352916020019161087a565b820191906000526020600020905b81548152906001019060200180831161085d57829003601f168201915b5050505050905090565b61088c610c53565b73ffffffffffffffffffffffffffffffffffffffff166108aa6107c8565b73ffffffffffffffffffffffffffffffffffffffff1614610900576040517f08c379a00000000000000000000000000000000000000000000000000000000081526004016108f79061181d565b60405180910390fd5b61090a82826111f9565b5050565b6000806001600061091d610c53565b73ffffffffffffffffffffffffffffffffffffffff1673ffffffffffffffffffffffffffffffffffffffff16815260200190815260200160002060008573ffffffffffffffffffffffffffffffffffffffff1673ffffffffffffffffffffffffffffffffffffffff168152602001908152602001600020549050828110156109da576040517f08c379a00000000000000000000000000000000000000000000000000000000081526004016109d19061189d565b60405180910390fd5b6109f76109e5610c53565b8585846109f29190611985565b610c5b565b600191505092915050565b6000610a16610a0f610c53565b8484610e26565b6001905092915050565b6000600160008473ffffffffffffffffffffffffffffffffffffffff1673ffffffffffffffffffffffffffffffffffffffff16815260200190815260200160002060008373ffffffffffffffffffffffffffffffffffffffff1673ffffffffffffffffffffffffffffffffffffffff16815260200190815260200160002054905092915050565b610aaf610c53565b73ffffffffffffffffffffffffffffffffffffffff16610acd6107c8565b73ffffffffffffffffffffffffffffffffffffffff1614610b23576040517f08c379a0000000000000000000000000000000000000000000000000000000008152600401610b1a9061181d565b60405180910390fd5b600073ffffffffffffffffffffffffffffffffffffffff168173ffffffffffffffffffffffffffffffffffffffff161415610b93576040517f08c379a0000000000000000000000000000000000000000000000000000000008152600401610b8a9061179d565b60405180910390fd5b8073ffffffffffffffffffffffffffffffffffffffff16600560009054906101000a900473ffffffffffffffffffffffffffffffffffffffff1673ffffffffffffffffffffffffffffffffffffffff167f8be0079c531659141344cd1fd0a4f28419497f9722a3daafe3b4186f6b6457e060405160405180910390a380600560006101000a81548173ffffffffffffffffffffffffffffffffffffffff021916908373ffffffffffffffffffffffffffffffffffffffff16021790555050565b600033905090565b600073ffffffffffffffffffffffffffffffffffffffff168373ffffffffffffffffffffffffffffffffffffffff161415610ccb576040517f08c379a0000000000000000000000000000000000000000000000000000000008152600401610cc29061187d565b60405180910390fd5b600073ffffffffffffffffffffffffffffffffffffffff168273ffffffffffffffffffffffffffffffffffffffff161415610d3b576040517f08c379a0000000000000000000000000000000000000000000000000000000008152600401610d32906117bd565b60405180910390fd5b80600160008573ffffffffffffffffffffffffffffffffffffffff1673ffffffffffffffffffffffffffffffffffffffff16815260200190815260200160002060008473ffffffffffffffffffffffffffffffffffffffff1673ffffffffffffffffffffffffffffffffffffffff168152602001908152602001600020819055508173ffffffffffffffffffffffffffffffffffffffff168373ffffffffffffffffffffffffffffffffffffffff167f8c5be1e5ebec7d5bd14f71427d1e84f3dd0314c0f7b2291e5b200ac8c7c3b92583604051610e1991906118dd565b60405180910390a3505050565b600073ffffffffffffffffffffffffffffffffffffffff168373ffffffffffffffffffffffffffffffffffffffff161415610e96576040517f08c379a0000000000000000000000000000000000000000000000000000000008152600401610e8d9061185d565b60405180910390fd5b600073ffffffffffffffffffffffffffffffffffffffff168273ffffffffffffffffffffffffffffffffffffffff161415610f06576040517f08c379a0000000000000000000000000000000000000000000000000000000008152600401610efd9061175d565b60405180910390fd5b610f118383836113cd565b60008060008573ffffffffffffffffffffffffffffffffffffffff1673ffffffffffffffffffffffffffffffffffffffff16815260200190815260200160002054905081811015610f97576040517f08c379a0000000000000000000000000000000000000000000000000000000008152600401610f8e906117dd565b60405180910390fd5b8181610fa39190611985565b6000808673ffffffffffffffffffffffffffffffffffffffff1673ffffffffffffffffffffffffffffffffffffffff16815260200190815260200160002081905550816000808573ffffffffffffffffffffffffffffffffffffffff1673ffffffffffffffffffffffffffffffffffffffff1681526020019081526020016000206000828254611033919061192f565b925050819055508273ffffffffffffffffffffffffffffffffffffffff168473ffffffffffffffffffffffffffffffffffffffff167fddf252ad1be2c89b69c2b068fc378daa952ba7f163c4a11628f55a4df523b3ef8460405161109791906118dd565b60405180910390a350505050565b600073ffffffffffffffffffffffffffffffffffffffff168273ffffffffffffffffffffffffffffffffffffffff161415611115576040517f08c379a000000000000000000000000000000000000000000000000000000000815260040161110c906118bd565b60405180910390fd5b611121600083836113cd565b8060026000828254611133919061192f565b92505081905550806000808473ffffffffffffffffffffffffffffffffffffffff1673ffffffffffffffffffffffffffffffffffffffff1681526020019081526020016000206000828254611188919061192f565b925050819055508173ffffffffffffffffffffffffffffffffffffffff16600073ffffffffffffffffffffffffffffffffffffffff167fddf252ad1be2c89b69c2b068fc378daa952ba7f163c4a11628f55a4df523b3ef836040516111ed91906118dd565b60405180910390a35050565b600073ffffffffffffffffffffffffffffffffffffffff168273ffffffffffffffffffffffffffffffffffffffff161415611269576040517f08c379a00000000000000000000000000000000000000000000000000000000081526004016112609061183d565b60405180910390fd5b611275826000836113cd565b60008060008473ffffffffffffffffffffffffffffffffffffffff1673ffffffffffffffffffffffffffffffffffffffff168152602001908152602001600020549050818110156112fb576040517f08c379a00000000000000000000000000000000000000000000000000000000081526004016112f29061177d565b60405180910390fd5b81816113079190611985565b6000808573ffffffffffffffffffffffffffffffffffffffff1673ffffffffffffffffffffffffffffffffffffffff16815260200190815260200160002081905550816002600082825461135b9190611985565b92505081905550600073ffffffffffffffffffffffffffffffffffffffff168373ffffffffffffffffffffffffffffffffffffffff167fddf252ad1be2c89b69c2b068fc378daa952ba7f163c4a11628f55a4df523b3ef846040516113c091906118dd565b60405180910390a3505050565b505050565b6000813590506113e181611e4a565b92915050565b6000813590506113f681611e61565b92915050565b60006020828403121561140e57600080fd5b600061141c848285016113d2565b91505092915050565b6000806040838503121561143857600080fd5b6000611446858286016113d2565b9250506020611457858286016113d2565b9150509250929050565b60008060006060848603121561147657600080fd5b6000611484868287016113d2565b9350506020611495868287016113d2565b92505060406114a6868287016113e7565b9150509250925092565b600080604083850312156114c357600080fd5b60006114d1858286016113d2565b92505060206114e2858286016113e7565b9150509250929050565b6114f5816119b9565b82525050565b611504816119cb565b82525050565b600061151582611913565b61151f818561191e565b935061152f818560208601611a0e565b61153881611ad1565b840191505092915050565b600061155060238361191e565b915061155b82611ae2565b604082019050919050565b600061157360228361191e565b915061157e82611b31565b604082019050919050565b600061159660268361191e565b91506115a182611b80565b604082019050919050565b60006115b960228361191e565b91506115c482611bcf565b604082019050919050565b60006115dc60268361191e565b91506115e782611c1e565b604082019050919050565b60006115ff60288361191e565b915061160a82611c6d565b604082019050919050565b600061162260208361191e565b915061162d82611cbc565b602082019050919050565b600061164560218361191e565b915061165082611ce5565b604082019050919050565b600061166860258361191e565b915061167382611d34565b604082019050919050565b600061168b60248361191e565b915061169682611d83565b604082019050919050565b60006116ae60258361191e565b91506116b982611dd2565b604082019050919050565b60006116d1601f8361191e565b91506116dc82611e21565b602082019050919050565b6116f0816119f7565b82525050565b6116ff81611a01565b82525050565b600060208201905061171a60008301846114ec565b92915050565b600060208201905061173560008301846114fb565b92915050565b60006020820190508181036000830152611755818461150a565b905092915050565b6000602082019050818103600083015261177681611543565b9050919050565b6000602082019050818103600083015261179681611566565b9050919050565b600060208201905081810360008301526117b681611589565b9050919050565b600060208201905081810360008301526117d6816115ac565b9050919050565b600060208201905081810360008301526117f6816115cf565b9050919050565b60006020820190508181036000830152611816816115f2565b9050919050565b6000602082019050818103600083015261183681611615565b9050919050565b6000602082019050818103600083015261185681611638565b9050919050565b600060208201905081810360008301526118768161165b565b9050919050565b600060208201905081810360008301526118968161167e565b9050919050565b600060208201905081810360008301526118b6816116a1565b9050919050565b600060208201905081810360008301526118d6816116c4565b9050919050565b60006020820190506118f260008301846116e7565b92915050565b600060208201905061190d60008301846116f6565b92915050565b600081519050919050565b600082825260208201905092915050565b600061193a826119f7565b9150611945836119f7565b9250827fffffffffffffffffffffffffffffffffffffffffffffffffffffffffffffffff0382111561197a57611979611a73565b5b828201905092915050565b6000611990826119f7565b915061199b836119f7565b9250828210156119ae576119ad611a73565b5b828203905092915050565b60006119c4826119d7565b9050919050565b60008115159050919050565b600073ffffffffffffffffffffffffffffffffffffffff82169050919050565b6000819050919050565b600060ff82169050919050565b60005b83811015611a2c578082015181840152602081019050611a11565b83811115611a3b576000848401525b50505050565b60006002820490506001821680611a5957607f821691505b60208210811415611a6d57611a6c611aa2565b5b50919050565b7f4e487b7100000000000000000000000000000000000000000000000000000000600052601160045260246000fd5b7f4e487b7100000000000000000000000000000000000000000000000000000000600052602260045260246000fd5b6000601f19601f8301169050919050565b7f45524332303a207472616e7366657220746f20746865207a65726f206164647260008201527f6573730000000000000000000000000000000000000000000000000000000000602082015250565b7f45524332303a206275726e20616d6f756e7420657863656564732062616c616e60008201527f6365000000000000000000000000000000000000000000000000000000000000602082015250565b7f4f776e61626c653a206e6577206f776e657220697320746865207a65726f206160008201527f6464726573730000000000000000000000000000000000000000000000000000602082015250565b7f45524332303a20617070726f766520746f20746865207a65726f20616464726560008201527f7373000000000000000000000000000000000000000000000000000000000000602082015250565b7f45524332303a207472616e7366657220616d6f756e742065786365656473206260008201527f616c616e63650000000000000000000000000000000000000000000000000000602082015250565b7f45524332303a207472616e7366657220616d6f756e742065786365656473206160008201527f6c6c6f77616e6365000000000000000000000000000000000000000000000000602082015250565b7f4f776e61626c653a2063616c6c6572206973206e6f7420746865206f776e6572600082015250565b7f45524332303a206275726e2066726f6d20746865207a65726f2061646472657360008201527f7300000000000000000000000000000000000000000000000000000000000000602082015250565b7f45524332303a207472616e736665722066726f6d20746865207a65726f20616460008201527f6472657373000000000000000000000000000000000000000000000000000000602082015250565b7f45524332303a20617070726f76652066726f6d20746865207a65726f2061646460008201527f7265737300000000000000000000000000000000000000000000000000000000602082015250565b7f45524332303a2064656372656173656420616c6c6f77616e63652062656c6f7760008201527f207a65726f000000000000000000000000000000000000000000000000000000602082015250565b7f45524332303a206d696e7420746f20746865207a65726f206164647265737300600082015250565b611e53816119b9565b8114611e5e57600080fd5b50565b611e6a816119f7565b8114611e7557600080fd5b5056fea26469706673582212208284dada12b3d2138270b848c74b40d60e61258e84fb115d93ac37548d12d31c64736f6c63430008040033a264697066735822122061ec5631ceacb8344d229d1c38f58b179aca06b21c9f0430516e98acdf35f1d664736f6c63430008040033",
  "immutableReferences": {},
  "source": "pragma solidity >=0.6.12;\nimport '@openzeppelin/contracts/access/Ownable.sol';\nimport '@openzeppelin/contracts/utils/cryptography/ECDSA.sol';\nimport './BEP20.sol';\nimport './TransferHelper.sol';\n\ncontract BSCBridge is Ownable {\n\n    using ECDSA for bytes32;\n    using SafeMath for uint;\n\n    mapping(string => bool) executed;\n    mapping(address => address) slpToBep;\n    mapping(address => address) bepToSlp;\n\n    bytes32 private secret = keccak256(abi.encodePacked(block.number,'0x3d602d80600a3d3981f3363d3d373d3d3d363d73000000000000000000000000'));\n\n    event Bridge(address indexed slpToken, address indexed bepToken);\n    event Transit(address indexed slpToken, address indexed to, uint256 amount, string transitId);\n    event Payback(address indexed slpToken, address indexed to, uint256 amount, string _metadata);\n\n    constructor() public {}\n\n    function deployBridgeBep20Token(address _slpToken,string memory _name, string memory _symbol) onlyOwner external {\n        require(_slpToken != address(0), \"invalid token\");\n        bytes memory bytecode = abi.encodePacked(type(BEP20).creationCode, abi.encode(_name, _symbol));\n        bytes32 salt = keccak256(abi.encodePacked(_slpToken, _name, _symbol));\n        address _newToken;\n        assembly {\n            _newToken := create2(0, add(bytecode, 32), mload(bytecode), salt)\n        }\n        slpToBep[_slpToken] = _newToken;\n        bepToSlp[_newToken] = _slpToken;\n        emit Bridge(_slpToken, _newToken);\n    }\n\n    function transit(address _slpToken, uint256 _amount, string memory _transitId, bytes32 _signature) external {\n        require(slpToBep[_slpToken] != address(0), \"token not support to bridge\");\n        require(!executed[_transitId], \"already transit\");\n        require(_amount > 0, \"amount must be greater than 0\");\n\n        bytes32 signature = _verifyMessage(_slpToken, _amount, msg.sender, _transitId, secret);\n        require(signature == _signature, \"invalid signature\");\n\n        BEP20(slpToBep[_slpToken]).mint(msg.sender, _amount);\n        executed[_transitId] = true;\n        emit Transit(_slpToken, msg.sender, _amount, _transitId);\n    }\n\n    function payback(address _bepToken, uint256 _amount, string memory _metadata) external {\n        address slpToken = bepToSlp[_bepToken];\n\n        require(slpToken != address(0), \"invalid token\");\n        require(_amount > 0, \"amount must be greater than 0\");\n\n        BEP20(_bepToken).burn(msg.sender, _amount);\n        emit Payback(slpToken, msg.sender, _amount, _metadata);\n    }\n\n    function transferTokenOwnership(address _bepToken, address _to) onlyOwner external {\n        address slpToken = bepToSlp[_bepToken];\n        require(bepToSlp[_bepToken] != address(0), \"invalid token\");\n\n        BEP20(_bepToken).transferOwnership(_to);\n        slpToBep[slpToken] = address(0);\n        bepToSlp[_bepToken] = address(0);\n    }\n\n    function addTokenToBridge(address _bepToken,address _slpToken) onlyOwner external {\n        slpToBep[_slpToken] = _bepToken;\n        bepToSlp[_bepToken] = _slpToken;\n        emit Bridge(_slpToken, _bepToken);\n    }\n\n    function _verifyMessage(address _slpToken, uint256 _amount, address _sender, string memory _transitId, bytes32 _secret) public view returns(bytes32) {\n        uint chainId;\n        assembly {\n            chainId := chainid()\n        }\n        return keccak256(abi.encodePacked(chainId, address(this), _slpToken, _amount, _sender, _transitId, _secret));\n    }\n\n}\n",
  "sourcePath": "/Users/ducduong/git/0xteam/metaseer-bridge-be/packages/bsc-contracts/contracts/BSCBridge.sol",
  "compiler": {
    "name": "solc",
    "version": "0.8.4+commit.c7e474f2.Emscripten.clang"
  },
  "schemaVersion": "3.4.1",
  "updatedAt": "2021-11-03T14:40:34.782Z",
  "devdoc": {
    "kind": "dev",
    "methods": {
      "owner()": {
        "details": "Returns the address of the current owner."
      },
      "renounceOwnership()": {
        "details": "Leaves the contract without owner. It will not be possible to call `onlyOwner` functions anymore. Can only be called by the current owner. NOTE: Renouncing ownership will leave the contract without an owner, thereby removing any functionality that is only available to the owner."
      },
      "transferOwnership(address)": {
        "details": "Transfers ownership of the contract to a new account (`newOwner`). Can only be called by the current owner."
      }
    },
    "version": 1
  },
  "userdoc": {
    "kind": "user",
    "methods": {},
    "version": 1
  }
}